{
  "contractName": "AGRODECENTRAL",
  "abi": [
    {
      "inputs": [
        {
          "internalType": "uint256",
          "name": "",
          "type": "uint256"
        }
      ],
      "name": "all_offers",
      "outputs": [
        {
          "internalType": "string",
          "name": "crop_type",
          "type": "string"
        },
        {
          "internalType": "uint256",
          "name": "quantity",
          "type": "uint256"
        },
        {
          "internalType": "uint256",
          "name": "expire_date",
          "type": "uint256"
        },
        {
          "internalType": "uint256",
          "name": "price_per_unit",
          "type": "uint256"
        },
        {
          "internalType": "uint256",
          "name": "total_price",
          "type": "uint256"
        },
        {
          "internalType": "address payable",
          "name": "payment_address",
          "type": "address"
        },
        {
          "internalType": "bool",
          "name": "deleivered",
          "type": "bool"
        }
      ],
      "stateMutability": "view",
      "type": "function",
      "constant": true
    },
    {
      "inputs": [
        {
          "internalType": "uint256",
          "name": "_id_to_buy",
          "type": "uint256"
        },
        {
          "internalType": "string",
          "name": "_crop_type",
          "type": "string"
        },
        {
          "internalType": "uint256",
          "name": "_quantity",
          "type": "uint256"
        },
        {
          "internalType": "uint256",
          "name": "_expiry_date",
          "type": "uint256"
        },
        {
          "internalType": "uint256",
          "name": "_price_per_unit",
          "type": "uint256"
        },
        {
          "internalType": "address payable",
          "name": "_payment_address",
          "type": "address"
        }
      ],
      "name": "create_offer",
      "outputs": [],
      "stateMutability": "payable",
      "type": "function",
      "payable": true
    },
    {
      "inputs": [
        {
          "internalType": "uint256",
          "name": "_id_to_buy",
          "type": "uint256"
        }
      ],
      "name": "purchase_crops",
      "outputs": [],
      "stateMutability": "payable",
      "type": "function",
      "payable": true
    }
  ],
  "bytecode": "0x608060405234801561001057600080fd5b50610eb9806100206000396000f3fe6080604052600436106100345760003560e01c80635c779176146100395780638e2f097314610055578063c7e3a7bb14610098575b600080fd5b610053600480360381019061004e91906106cc565b6100b4565b005b34801561006157600080fd5b5061007c60048036038101906100779190610775565b610261565b60405161008f979695949392919061085a565b60405180910390f35b6100b260048036038101906100ad9190610775565b610358565b005b600084116100f7576040517f08c379a00000000000000000000000000000000000000000000000000000000081526004016100ee9061091c565b60405180910390fd5b6000821161013a576040517f08c379a000000000000000000000000000000000000000000000000000000000815260040161013190610988565b60405180910390fd5b6040518060e00160405280868152602001858152602001848152602001838152602001858461016991906109d7565b81526020018273ffffffffffffffffffffffffffffffffffffffff1681526020016000151581525060008088815260200190815260200160002060008201518160000190816101b89190610c25565b506020820151816001015560408201518160020155606082015181600301556080820151816004015560a08201518160050160006101000a81548173ffffffffffffffffffffffffffffffffffffffff021916908373ffffffffffffffffffffffffffffffffffffffff16021790555060c08201518160050160146101000a81548160ff021916908315150217905550905050858061025690610cf7565b965050505050505050565b600060205280600052604060002060009150905080600001805461028490610a48565b80601f01602080910402602001604051908101604052809291908181526020018280546102b090610a48565b80156102fd5780601f106102d2576101008083540402835291602001916102fd565b820191906000526020600020905b8154815290600101906020018083116102e057829003601f168201915b5050505050908060010154908060020154908060030154908060040154908060050160009054906101000a900473ffffffffffffffffffffffffffffffffffffffff16908060050160149054906101000a900460ff16905087565b60008060008381526020019081526020016000209050428160020154106103b4576040517f08c379a00000000000000000000000000000000000000000000000000000000081526004016103ab90610d8b565b60405180910390fd5b600015158160050160149054906101000a900460ff1615151461040c576040517f08c379a000000000000000000000000000000000000000000000000000000000815260040161040390610df7565b60405180910390fd5b80600401543414610452576040517f08c379a000000000000000000000000000000000000000000000000000000000815260040161044990610e63565b60405180910390fd5b8060050160009054906101000a900473ffffffffffffffffffffffffffffffffffffffff1673ffffffffffffffffffffffffffffffffffffffff166108fc349081150290604051600060405180830381858888f193505050501580156104bc573d6000803e3d6000fd5b5060018160050160146101000a81548160ff0219169083151502179055505050565b6000604051905090565b600080fd5b600080fd5b6000819050919050565b610505816104f2565b811461051057600080fd5b50565b600081359050610522816104fc565b92915050565b600080fd5b600080fd5b6000601f19601f8301169050919050565b7f4e487b7100000000000000000000000000000000000000000000000000000000600052604160045260246000fd5b61057b82610532565b810181811067ffffffffffffffff8211171561059a57610599610543565b5b80604052505050565b60006105ad6104de565b90506105b98282610572565b919050565b600067ffffffffffffffff8211156105d9576105d8610543565b5b6105e282610532565b9050602081019050919050565b82818337600083830152505050565b600061061161060c846105be565b6105a3565b90508281526020810184848401111561062d5761062c61052d565b5b6106388482856105ef565b509392505050565b600082601f83011261065557610654610528565b5b81356106658482602086016105fe565b91505092915050565b600073ffffffffffffffffffffffffffffffffffffffff82169050919050565b60006106998261066e565b9050919050565b6106a98161068e565b81146106b457600080fd5b50565b6000813590506106c6816106a0565b92915050565b60008060008060008060c087890312156106e9576106e86104e8565b5b60006106f789828a01610513565b965050602087013567ffffffffffffffff811115610718576107176104ed565b5b61072489828a01610640565b955050604061073589828a01610513565b945050606061074689828a01610513565b935050608061075789828a01610513565b92505060a061076889828a016106b7565b9150509295509295509295565b60006020828403121561078b5761078a6104e8565b5b600061079984828501610513565b91505092915050565b600081519050919050565b600082825260208201905092915050565b60005b838110156107dc5780820151818401526020810190506107c1565b60008484015250505050565b60006107f3826107a2565b6107fd81856107ad565b935061080d8185602086016107be565b61081681610532565b840191505092915050565b61082a816104f2565b82525050565b6108398161068e565b82525050565b60008115159050919050565b6108548161083f565b82525050565b600060e0820190508181036000830152610874818a6107e8565b90506108836020830189610821565b6108906040830188610821565b61089d6060830187610821565b6108aa6080830186610821565b6108b760a0830185610830565b6108c460c083018461084b565b98975050505050505050565b7f5175616e746974792073686f756c64206265206d6f7265207468616e20310000600082015250565b6000610906601e836107ad565b9150610911826108d0565b602082019050919050565b60006020820190508181036000830152610935816108f9565b9050919050565b7f7365742070726963652067726561746572207468616e20300000000000000000600082015250565b60006109726018836107ad565b915061097d8261093c565b602082019050919050565b600060208201905081810360008301526109a181610965565b9050919050565b7f4e487b7100000000000000000000000000000000000000000000000000000000600052601160045260246000fd5b60006109e2826104f2565b91506109ed836104f2565b92508282026109fb816104f2565b91508282048414831517610a1257610a116109a8565b5b5092915050565b7f4e487b7100000000000000000000000000000000000000000000000000000000600052602260045260246000fd5b60006002820490506001821680610a6057607f821691505b602082108103610a7357610a72610a19565b5b50919050565b60008190508160005260206000209050919050565b60006020601f8301049050919050565b600082821b905092915050565b600060088302610adb7fffffffffffffffffffffffffffffffffffffffffffffffffffffffffffffffff82610a9e565b610ae58683610a9e565b95508019841693508086168417925050509392505050565b6000819050919050565b6000610b22610b1d610b18846104f2565b610afd565b6104f2565b9050919050565b6000819050919050565b610b3c83610b07565b610b50610b4882610b29565b848454610aab565b825550505050565b600090565b610b65610b58565b610b70818484610b33565b505050565b5b81811015610b9457610b89600082610b5d565b600181019050610b76565b5050565b601f821115610bd957610baa81610a79565b610bb384610a8e565b81016020851015610bc2578190505b610bd6610bce85610a8e565b830182610b75565b50505b505050565b600082821c905092915050565b6000610bfc60001984600802610bde565b1980831691505092915050565b6000610c158383610beb565b9150826002028217905092915050565b610c2e826107a2565b67ffffffffffffffff811115610c4757610c46610543565b5b610c518254610a48565b610c5c828285610b98565b600060209050601f831160018114610c8f5760008415610c7d578287015190505b610c878582610c09565b865550610cef565b601f198416610c9d86610a79565b60005b82811015610cc557848901518255600182019150602085019450602081019050610ca0565b86831015610ce25784890151610cde601f891682610beb565b8355505b6001600288020188555050505b505050505050565b6000610d02826104f2565b91507fffffffffffffffffffffffffffffffffffffffffffffffffffffffffffffffff8203610d3457610d336109a8565b5b600182019050919050565b7f4f66666572206861732065787069726564000000000000000000000000000000600082015250565b6000610d756011836107ad565b9150610d8082610d3f565b602082019050919050565b60006020820190508181036000830152610da481610d68565b9050919050565b7f4f666665722068617320616c7265616479206265656e2064656c697665726564600082015250565b6000610de16020836107ad565b9150610dec82610dab565b602082019050919050565b60006020820190508181036000830152610e1081610dd4565b9050919050565b7f496e636f727265637420616d6f756e742073656e740000000000000000000000600082015250565b6000610e4d6015836107ad565b9150610e5882610e17565b602082019050919050565b60006020820190508181036000830152610e7c81610e40565b905091905056fea26469706673582212201a9d704f4fc21d31c58bb4096989fb8dbb8f0174f094c709376fd40d50055ab064736f6c63430008110033",
  "immutableReferences": {},
  "source": "// SPDX-License-Identifier:GPL-3.0\r\npragma solidity>=0.5.0<0.9.0;\r\ncontract AGRODECENTRAL{\r\nstruct new_offer_seller{\r\n    string crop_type;\r\n    uint quantity;\r\n    uint expire_date;\r\n    uint price_per_unit;\r\n    uint total_price;\r\n    address payable payment_address;\r\n    bool deleivered;\r\n}\r\nmapping(uint=>new_offer_seller) public all_offers;\r\n\r\n\r\nfunction create_offer(uint _id_to_buy,string memory _crop_type,uint _quantity,uint _expiry_date,uint _price_per_unit,address payable _payment_address) public payable{\r\n    require(_quantity>0,\"Quantity should be more than 1\");\r\n    require(_price_per_unit>0,\"set price greater than 0\");\r\n    all_offers[_id_to_buy]=new_offer_seller(_crop_type,_quantity,_expiry_date,_price_per_unit,( _price_per_unit*_quantity),_payment_address,false);\r\n    _id_to_buy++;\r\n}\r\n\r\nfunction purchase_crops(uint _id_to_buy ) public payable{\r\n\r\n     new_offer_seller storage offer = all_offers[_id_to_buy];\r\n        require(offer.expire_date < block.timestamp, \"Offer has expired\");\r\n        require(offer.deleivered==false, \"Offer has already been delivered\");\r\n\r\n        require(msg.value == offer.total_price, \"Incorrect amount sent\");\r\n\r\n        // Lock the payment in the contract\r\n        offer.payment_address.transfer(msg.value);\r\n\r\n        // Set delivery status to true\r\n        offer.deleivered = true;\r\n}\r\n}",
  "sourcePath": "C:\\Important\\agro-decentral-\\contracts\\AGRODECENTRAL.sol",
  "compiler": {
    "name": "solc",
    "version": "0.8.17+commit.8df45f5f.Emscripten.clang"
  },
  "schemaVersion": "3.4.15",
  "updatedAt": "2024-03-18T09:44:16.724Z",
  "networkType": "ethereum",
  "devdoc": {
    "kind": "dev",
    "methods": {},
    "version": 1
  },
  "userdoc": {
    "kind": "user",
    "methods": {},
    "version": 1
  }
}